{
  "_format": "hh-sol-artifact-1",
  "contractName": "Domain",
  "sourceName": "contracts/Domain.sol",
  "abi": [
    {
      "inputs": [
        {
          "internalType": "string",
          "name": "_tld",
          "type": "string"
        }
      ],
      "stateMutability": "payable",
      "type": "constructor"
    },
    {
      "anonymous": false,
      "inputs": [
        {
          "indexed": true,
          "internalType": "address",
          "name": "owner",
          "type": "address"
        },
        {
          "indexed": true,
          "internalType": "address",
          "name": "approved",
          "type": "address"
        },
        {
          "indexed": true,
          "internalType": "uint256",
          "name": "tokenId",
          "type": "uint256"
        }
      ],
      "name": "Approval",
      "type": "event"
    },
    {
      "anonymous": false,
      "inputs": [
        {
          "indexed": true,
          "internalType": "address",
          "name": "owner",
          "type": "address"
        },
        {
          "indexed": true,
          "internalType": "address",
          "name": "operator",
          "type": "address"
        },
        {
          "indexed": false,
          "internalType": "bool",
          "name": "approved",
          "type": "bool"
        }
      ],
      "name": "ApprovalForAll",
      "type": "event"
    },
    {
      "anonymous": false,
      "inputs": [
        {
          "indexed": true,
          "internalType": "address",
          "name": "from",
          "type": "address"
        },
        {
          "indexed": true,
          "internalType": "address",
          "name": "to",
          "type": "address"
        },
        {
          "indexed": true,
          "internalType": "uint256",
          "name": "tokenId",
          "type": "uint256"
        }
      ],
      "name": "Transfer",
      "type": "event"
    },
    {
      "inputs": [
        {
          "internalType": "address",
          "name": "to",
          "type": "address"
        },
        {
          "internalType": "uint256",
          "name": "tokenId",
          "type": "uint256"
        }
      ],
      "name": "approve",
      "outputs": [],
      "stateMutability": "nonpayable",
      "type": "function"
    },
    {
      "inputs": [
        {
          "internalType": "address",
          "name": "owner",
          "type": "address"
        }
      ],
      "name": "balanceOf",
      "outputs": [
        {
          "internalType": "uint256",
          "name": "",
          "type": "uint256"
        }
      ],
      "stateMutability": "view",
      "type": "function"
    },
    {
      "inputs": [
        {
          "internalType": "string",
          "name": "_name",
          "type": "string"
        }
      ],
      "name": "getAddress",
      "outputs": [
        {
          "internalType": "address",
          "name": "",
          "type": "address"
        }
      ],
      "stateMutability": "view",
      "type": "function"
    },
    {
      "inputs": [
        {
          "internalType": "uint256",
          "name": "tokenId",
          "type": "uint256"
        }
      ],
      "name": "getApproved",
      "outputs": [
        {
          "internalType": "address",
          "name": "",
          "type": "address"
        }
      ],
      "stateMutability": "view",
      "type": "function"
    },
    {
      "inputs": [
        {
          "internalType": "string",
          "name": "name",
          "type": "string"
        }
      ],
      "name": "getRecord",
      "outputs": [
        {
          "internalType": "string",
          "name": "",
          "type": "string"
        }
      ],
      "stateMutability": "view",
      "type": "function"
    },
    {
      "inputs": [
        {
          "internalType": "address",
          "name": "owner",
          "type": "address"
        },
        {
          "internalType": "address",
          "name": "operator",
          "type": "address"
        }
      ],
      "name": "isApprovedForAll",
      "outputs": [
        {
          "internalType": "bool",
          "name": "",
          "type": "bool"
        }
      ],
      "stateMutability": "view",
      "type": "function"
    },
    {
      "inputs": [],
      "name": "name",
      "outputs": [
        {
          "internalType": "string",
          "name": "",
          "type": "string"
        }
      ],
      "stateMutability": "view",
      "type": "function"
    },
    {
      "inputs": [
        {
          "internalType": "uint256",
          "name": "tokenId",
          "type": "uint256"
        }
      ],
      "name": "ownerOf",
      "outputs": [
        {
          "internalType": "address",
          "name": "",
          "type": "address"
        }
      ],
      "stateMutability": "view",
      "type": "function"
    },
    {
      "inputs": [
        {
          "internalType": "string",
          "name": "_name",
          "type": "string"
        }
      ],
      "name": "price",
      "outputs": [
        {
          "internalType": "uint256",
          "name": "",
          "type": "uint256"
        }
      ],
      "stateMutability": "pure",
      "type": "function"
    },
    {
      "inputs": [
        {
          "internalType": "string",
          "name": "_name",
          "type": "string"
        }
      ],
      "name": "register",
      "outputs": [],
      "stateMutability": "payable",
      "type": "function"
    },
    {
      "inputs": [
        {
          "internalType": "address",
          "name": "from",
          "type": "address"
        },
        {
          "internalType": "address",
          "name": "to",
          "type": "address"
        },
        {
          "internalType": "uint256",
          "name": "tokenId",
          "type": "uint256"
        }
      ],
      "name": "safeTransferFrom",
      "outputs": [],
      "stateMutability": "nonpayable",
      "type": "function"
    },
    {
      "inputs": [
        {
          "internalType": "address",
          "name": "from",
          "type": "address"
        },
        {
          "internalType": "address",
          "name": "to",
          "type": "address"
        },
        {
          "internalType": "uint256",
          "name": "tokenId",
          "type": "uint256"
        },
        {
          "internalType": "bytes",
          "name": "_data",
          "type": "bytes"
        }
      ],
      "name": "safeTransferFrom",
      "outputs": [],
      "stateMutability": "nonpayable",
      "type": "function"
    },
    {
      "inputs": [
        {
          "internalType": "address",
          "name": "operator",
          "type": "address"
        },
        {
          "internalType": "bool",
          "name": "approved",
          "type": "bool"
        }
      ],
      "name": "setApprovalForAll",
      "outputs": [],
      "stateMutability": "nonpayable",
      "type": "function"
    },
    {
      "inputs": [
        {
          "internalType": "string",
          "name": "name",
          "type": "string"
        },
        {
          "internalType": "string",
          "name": "record",
          "type": "string"
        }
      ],
      "name": "setRecord",
      "outputs": [],
      "stateMutability": "nonpayable",
      "type": "function"
    },
    {
      "inputs": [
        {
          "internalType": "bytes4",
          "name": "interfaceId",
          "type": "bytes4"
        }
      ],
      "name": "supportsInterface",
      "outputs": [
        {
          "internalType": "bool",
          "name": "",
          "type": "bool"
        }
      ],
      "stateMutability": "view",
      "type": "function"
    },
    {
      "inputs": [],
      "name": "symbol",
      "outputs": [
        {
          "internalType": "string",
          "name": "",
          "type": "string"
        }
      ],
      "stateMutability": "view",
      "type": "function"
    },
    {
      "inputs": [],
      "name": "tld",
      "outputs": [
        {
          "internalType": "string",
          "name": "",
          "type": "string"
        }
      ],
      "stateMutability": "view",
      "type": "function"
    },
    {
      "inputs": [
        {
          "internalType": "uint256",
          "name": "tokenId",
          "type": "uint256"
        }
      ],
      "name": "tokenURI",
      "outputs": [
        {
          "internalType": "string",
          "name": "",
          "type": "string"
        }
      ],
      "stateMutability": "view",
      "type": "function"
    },
    {
      "inputs": [
        {
          "internalType": "address",
          "name": "from",
          "type": "address"
        },
        {
          "internalType": "address",
          "name": "to",
          "type": "address"
        },
        {
          "internalType": "uint256",
          "name": "tokenId",
          "type": "uint256"
        }
      ],
      "name": "transferFrom",
      "outputs": [],
      "stateMutability": "nonpayable",
      "type": "function"
    }
  ],
  "bytecode": "0x6080604052604051806108a0016040528061086b81526020016200495961086b9139600990805190602001906200003892919062000287565b506040518060400160405280600d81526020017f3c2f746578743e3c2f7376673e00000000000000000000000000000000000000815250600a90805190602001906200008692919062000287565b50604051620051c4380380620051c48339818101604052810190620000ac9190620003a9565b6040518060400160405280601581526020017f4d617276656c20446f6d61696e205365727669636500000000000000000000008152506040518060400160405280600381526020017f4d4453000000000000000000000000000000000000000000000000000000000081525081600090805190602001906200013092919062000287565b5080600190805190602001906200014992919062000287565b50505080600890805190602001906200016492919062000287565b50620001b16040518060400160405280601881526020017f2573206e616d652073657276696365206465706c6f796564000000000000000081525082620001b860201b620013971760201c565b50620005f6565b6200025a8282604051602401620001d19291906200042f565b6040516020818303038152906040527f4b5c4277000000000000000000000000000000000000000000000000000000007bffffffffffffffffffffffffffffffffffffffffffffffffffffffff19166020820180517bffffffffffffffffffffffffffffffffffffffffffffffffffffffff83818316178352505050506200025e60201b60201c565b5050565b60008151905060006a636f6e736f6c652e6c6f679050602083016000808483855afa5050505050565b82805462000295906200051b565b90600052602060002090601f016020900481019282620002b9576000855562000305565b82601f10620002d457805160ff191683800117855562000305565b8280016001018555821562000305579182015b8281111562000304578251825591602001919060010190620002e7565b5b50905062000314919062000318565b5090565b5b808211156200033357600081600090555060010162000319565b5090565b60006200034e620003488462000493565b6200046a565b9050828152602081018484840111156200036757600080fd5b62000374848285620004e5565b509392505050565b600082601f8301126200038e57600080fd5b8151620003a084826020860162000337565b91505092915050565b600060208284031215620003bc57600080fd5b600082015167ffffffffffffffff811115620003d757600080fd5b620003e5848285016200037c565b91505092915050565b6000620003fb82620004c9565b620004078185620004d4565b935062000419818560208601620004e5565b6200042481620005e5565b840191505092915050565b600060408201905081810360008301526200044b8185620003ee565b90508181036020830152620004618184620003ee565b90509392505050565b60006200047662000489565b905062000484828262000551565b919050565b6000604051905090565b600067ffffffffffffffff821115620004b157620004b0620005b6565b5b620004bc82620005e5565b9050602081019050919050565b600081519050919050565b600082825260208201905092915050565b60005b8381101562000505578082015181840152602081019050620004e8565b8381111562000515576000848401525b50505050565b600060028204905060018216806200053457607f821691505b602082108114156200054b576200054a62000587565b5b50919050565b6200055c82620005e5565b810181811067ffffffffffffffff821117156200057e576200057d620005b6565b5b80604052505050565b7f4e487b7100000000000000000000000000000000000000000000000000000000600052602260045260246000fd5b7f4e487b7100000000000000000000000000000000000000000000000000000000600052604160045260246000fd5b6000601f19601f8301169050919050565b61435380620006066000396000f3fe6080604052600436106101145760003560e01c806370a08231116100a0578063c1880a9811610064578063c1880a98146103d5578063c87b56dd146103fe578063e985e9c51461043b578063f2c298be14610478578063fe2c61981461049457610114565b806370a08231146102de57806395d89b411461031b578063a22cb46514610346578063b88d4fde1461036f578063bf40fac11461039857610114565b806311dd8845116100e757806311dd8845146101e757806323b872dd146102245780632d5514321461024d57806342842e0e146102785780636352211e146102a157610114565b806301ffc9a71461011957806306fdde0314610156578063081812fc14610181578063095ea7b3146101be575b600080fd5b34801561012557600080fd5b50610140600480360381019061013b9190612bd8565b6104d1565b60405161014d91906133d5565b60405180910390f35b34801561016257600080fd5b5061016b6105b3565b60405161017891906133f0565b60405180910390f35b34801561018d57600080fd5b506101a860048036038101906101a39190612d25565b610645565b6040516101b5919061336e565b60405180910390f35b3480156101ca57600080fd5b506101e560048036038101906101e09190612b9c565b6106ca565b005b3480156101f357600080fd5b5061020e60048036038101906102099190612c2a565b6107e2565b60405161021b91906133f0565b60405180910390f35b34801561023057600080fd5b5061024b60048036038101906102469190612a96565b610895565b005b34801561025957600080fd5b506102626108f5565b60405161026f91906133f0565b60405180910390f35b34801561028457600080fd5b5061029f600480360381019061029a9190612a96565b610983565b005b3480156102ad57600080fd5b506102c860048036038101906102c39190612d25565b6109a3565b6040516102d5919061336e565b60405180910390f35b3480156102ea57600080fd5b5061030560048036038101906103009190612a31565b610a55565b604051610312919061370e565b60405180910390f35b34801561032757600080fd5b50610330610b0d565b60405161033d91906133f0565b60405180910390f35b34801561035257600080fd5b5061036d60048036038101906103689190612b60565b610b9f565b005b34801561037b57600080fd5b5061039660048036038101906103919190612ae5565b610bb5565b005b3480156103a457600080fd5b506103bf60048036038101906103ba9190612c2a565b610c17565b6040516103cc919061336e565b60405180910390f35b3480156103e157600080fd5b506103fc60048036038101906103f79190612c6f565b610c62565b005b34801561040a57600080fd5b5061042560048036038101906104209190612d25565b610d8f565b60405161043291906133f0565b60405180910390f35b34801561044757600080fd5b50610462600480360381019061045d9190612a5a565b610ee1565b60405161046f91906133d5565b60405180910390f35b610492600480360381019061048d9190612c2a565b610f75565b005b3480156104a057600080fd5b506104bb60048036038101906104b69190612ce4565b611300565b6040516104c8919061370e565b60405180910390f35b60007f80ac58cd000000000000000000000000000000000000000000000000000000007bffffffffffffffffffffffffffffffffffffffffffffffffffffffff1916827bffffffffffffffffffffffffffffffffffffffffffffffffffffffff1916148061059c57507f5b5e139f000000000000000000000000000000000000000000000000000000007bffffffffffffffffffffffffffffffffffffffffffffffffffffffff1916827bffffffffffffffffffffffffffffffffffffffffffffffffffffffff1916145b806105ac57506105ab82611433565b5b9050919050565b6060600080546105c2906139d3565b80601f01602080910402602001604051908101604052809291908181526020018280546105ee906139d3565b801561063b5780601f106106105761010080835404028352916020019161063b565b820191906000526020600020905b81548152906001019060200180831161061e57829003601f168201915b5050505050905090565b60006106508261149d565b61068f576040517f08c379a00000000000000000000000000000000000000000000000000000000081526004016106869061366e565b60405180910390fd5b6004600083815260200190815260200160002060009054906101000a900473ffffffffffffffffffffffffffffffffffffffff169050919050565b60006106d5826109a3565b90508073ffffffffffffffffffffffffffffffffffffffff168373ffffffffffffffffffffffffffffffffffffffff161415610746576040517f08c379a000000000000000000000000000000000000000000000000000000000815260040161073d906136ce565b60405180910390fd5b8073ffffffffffffffffffffffffffffffffffffffff16610765611509565b73ffffffffffffffffffffffffffffffffffffffff16148061079457506107938161078e611509565b610ee1565b5b6107d3576040517f08c379a00000000000000000000000000000000000000000000000000000000081526004016107ca9061358e565b60405180910390fd5b6107dd8383611511565b505050565b6060600c83836040516107f6929190613250565b9081526020016040518091039020805461080f906139d3565b80601f016020809104026020016040519081016040528092919081815260200182805461083b906139d3565b80156108885780601f1061085d57610100808354040283529160200191610888565b820191906000526020600020905b81548152906001019060200180831161086b57829003601f168201915b5050505050905092915050565b6108a66108a0611509565b826115ca565b6108e5576040517f08c379a00000000000000000000000000000000000000000000000000000000081526004016108dc906136ee565b60405180910390fd5b6108f08383836116a8565b505050565b60088054610902906139d3565b80601f016020809104026020016040519081016040528092919081815260200182805461092e906139d3565b801561097b5780601f106109505761010080835404028352916020019161097b565b820191906000526020600020905b81548152906001019060200180831161095e57829003601f168201915b505050505081565b61099e83838360405180602001604052806000815250610bb5565b505050565b6000806002600084815260200190815260200160002060009054906101000a900473ffffffffffffffffffffffffffffffffffffffff169050600073ffffffffffffffffffffffffffffffffffffffff168173ffffffffffffffffffffffffffffffffffffffff161415610a4c576040517f08c379a0000000000000000000000000000000000000000000000000000000008152600401610a43906135ce565b60405180910390fd5b80915050919050565b60008073ffffffffffffffffffffffffffffffffffffffff168273ffffffffffffffffffffffffffffffffffffffff161415610ac6576040517f08c379a0000000000000000000000000000000000000000000000000000000008152600401610abd906135ae565b60405180910390fd5b600360008373ffffffffffffffffffffffffffffffffffffffff1673ffffffffffffffffffffffffffffffffffffffff168152602001908152602001600020549050919050565b606060018054610b1c906139d3565b80601f0160208091040260200160405190810160405280929190818152602001828054610b48906139d3565b8015610b955780601f10610b6a57610100808354040283529160200191610b95565b820191906000526020600020905b815481529060010190602001808311610b7857829003601f168201915b5050505050905090565b610bb1610baa611509565b838361190f565b5050565b610bc6610bc0611509565b836115ca565b610c05576040517f08c379a0000000000000000000000000000000000000000000000000000000008152600401610bfc906136ee565b60405180910390fd5b610c1184848484611a7c565b50505050565b6000600b8383604051610c2b929190613250565b908152602001604051809103902060009054906101000a900473ffffffffffffffffffffffffffffffffffffffff16905092915050565b610cab600b8585604051610c77929190613250565b908152602001604051809103902060009054906101000a900473ffffffffffffffffffffffffffffffffffffffff16611ad8565b3373ffffffffffffffffffffffffffffffffffffffff16600b8585604051610cd4929190613250565b908152602001604051809103902060009054906101000a900473ffffffffffffffffffffffffffffffffffffffff1673ffffffffffffffffffffffffffffffffffffffff1614610d59576040517f08c379a0000000000000000000000000000000000000000000000000000000008152600401610d50906136ae565b60405180910390fd5b8181600c8686604051610d6d929190613250565b90815260200160405180910390209190610d88929190612785565b5050505050565b6060610d9a8261149d565b610dd9576040517f08c379a0000000000000000000000000000000000000000000000000000000008152600401610dd09061364e565b60405180910390fd5b6000600660008481526020019081526020016000208054610df9906139d3565b80601f0160208091040260200160405190810160405280929190818152602001828054610e25906139d3565b8015610e725780601f10610e4757610100808354040283529160200191610e72565b820191906000526020600020905b815481529060010190602001808311610e5557829003601f168201915b505050505090506000610e83611b71565b9050600081511415610e99578192505050610edc565b600082511115610ece578082604051602001610eb692919061329a565b60405160208183030381529060405292505050610edc565b610ed784611b88565b925050505b919050565b6000600560008473ffffffffffffffffffffffffffffffffffffffff1673ffffffffffffffffffffffffffffffffffffffff16815260200190815260200160002060008373ffffffffffffffffffffffffffffffffffffffff1673ffffffffffffffffffffffffffffffffffffffff16815260200190815260200160002060009054906101000a900460ff16905092915050565b600073ffffffffffffffffffffffffffffffffffffffff16600b8383604051610f9f929190613250565b908152602001604051809103902060009054906101000a900473ffffffffffffffffffffffffffffffffffffffff1673ffffffffffffffffffffffffffffffffffffffff1614611024576040517f08c379a000000000000000000000000000000000000000000000000000000000815260040161101b906134ae565b60405180910390fd5b600061107383838080601f016020809104026020016040519081016040528093929190818152602001838380828437600081840152601f19601f82011690508083019250505050505050611300565b9050803410156110b8576040517f08c379a00000000000000000000000000000000000000000000000000000000081526004016110af9061356e565b60405180910390fd5b6000838360086040516020016110d093929190613269565b60405160208183030381529060405290506000600982600a6040516020016110fa939291906132be565b604051602081830303815290604052905060006111176007611c2f565b9050600061116887878080601f016020809104026020016040519081016040528093929190818152602001838380828437600081840152601f19601f82011690508083019250505050505050611c3d565b9050600061117582611e18565b905061119a6040518060600160405280602e81526020016142f0602e91398685611fc5565b60006111d0866111a987612064565b846040516020016111bc939291906132ef565b604051602081830303815290604052612064565b90506000816040516020016111e5919061334c565b604051602081830303815290604052905061121760405180606001604052806039815260200161423e60399139612222565b6112566040518060400160405280600e81526020017f46696e616c20746f6b656e55524900000000000000000000000000000000000081525082611397565b61127760405180606001604052806039815260200161427760399139612222565b61128133866122bb565b61128b85826122d9565b33600b8b8b60405161129e929190613250565b908152602001604051809103902060006101000a81548173ffffffffffffffffffffffffffffffffffffffff021916908373ffffffffffffffffffffffffffffffffffffffff1602179055506112f4600761234d565b50505050505050505050565b60008061130c83611c3d565b905060008111611351576040517f08c379a00000000000000000000000000000000000000000000000000000000081526004016113489061360e565b60405180910390fd5b600381141561136b576706f05b59d3b20000915050611392565b600481141561138557670429d069189e0000915050611392565b67016345785d8a00009150505b919050565b61142f82826040516024016113ad929190613412565b6040516020818303038152906040527f4b5c4277000000000000000000000000000000000000000000000000000000007bffffffffffffffffffffffffffffffffffffffffffffffffffffffff19166020820180517bffffffffffffffffffffffffffffffffffffffffffffffffffffffff8381831617835250505050612363565b5050565b60007f01ffc9a7000000000000000000000000000000000000000000000000000000007bffffffffffffffffffffffffffffffffffffffffffffffffffffffff1916827bffffffffffffffffffffffffffffffffffffffffffffffffffffffff1916149050919050565b60008073ffffffffffffffffffffffffffffffffffffffff166002600084815260200190815260200160002060009054906101000a900473ffffffffffffffffffffffffffffffffffffffff1673ffffffffffffffffffffffffffffffffffffffff1614159050919050565b600033905090565b816004600083815260200190815260200160002060006101000a81548173ffffffffffffffffffffffffffffffffffffffff021916908373ffffffffffffffffffffffffffffffffffffffff160217905550808273ffffffffffffffffffffffffffffffffffffffff16611584836109a3565b73ffffffffffffffffffffffffffffffffffffffff167f8c5be1e5ebec7d5bd14f71427d1e84f3dd0314c0f7b2291e5b200ac8c7c3b92560405160405180910390a45050565b60006115d58261149d565b611614576040517f08c379a000000000000000000000000000000000000000000000000000000000815260040161160b9061354e565b60405180910390fd5b600061161f836109a3565b90508073ffffffffffffffffffffffffffffffffffffffff168473ffffffffffffffffffffffffffffffffffffffff16148061166157506116608185610ee1565b5b8061169f57508373ffffffffffffffffffffffffffffffffffffffff1661168784610645565b73ffffffffffffffffffffffffffffffffffffffff16145b91505092915050565b8273ffffffffffffffffffffffffffffffffffffffff166116c8826109a3565b73ffffffffffffffffffffffffffffffffffffffff161461171e576040517f08c379a0000000000000000000000000000000000000000000000000000000008152600401611715906134ce565b60405180910390fd5b600073ffffffffffffffffffffffffffffffffffffffff168273ffffffffffffffffffffffffffffffffffffffff16141561178e576040517f08c379a00000000000000000000000000000000000000000000000000000000081526004016117859061350e565b60405180910390fd5b61179983838361238c565b6117a4600082611511565b6001600360008573ffffffffffffffffffffffffffffffffffffffff1673ffffffffffffffffffffffffffffffffffffffff16815260200190815260200160002060008282546117f491906138e9565b925050819055506001600360008473ffffffffffffffffffffffffffffffffffffffff1673ffffffffffffffffffffffffffffffffffffffff168152602001908152602001600020600082825461184b9190613808565b92505081905550816002600083815260200190815260200160002060006101000a81548173ffffffffffffffffffffffffffffffffffffffff021916908373ffffffffffffffffffffffffffffffffffffffff160217905550808273ffffffffffffffffffffffffffffffffffffffff168473ffffffffffffffffffffffffffffffffffffffff167fddf252ad1be2c89b69c2b068fc378daa952ba7f163c4a11628f55a4df523b3ef60405160405180910390a461190a838383612391565b505050565b8173ffffffffffffffffffffffffffffffffffffffff168373ffffffffffffffffffffffffffffffffffffffff16141561197e576040517f08c379a00000000000000000000000000000000000000000000000000000000081526004016119759061352e565b60405180910390fd5b80600560008573ffffffffffffffffffffffffffffffffffffffff1673ffffffffffffffffffffffffffffffffffffffff16815260200190815260200160002060008473ffffffffffffffffffffffffffffffffffffffff1673ffffffffffffffffffffffffffffffffffffffff16815260200190815260200160002060006101000a81548160ff0219169083151502179055508173ffffffffffffffffffffffffffffffffffffffff168373ffffffffffffffffffffffffffffffffffffffff167f17307eab39ab6107e8899845ad3d59bd9653f200f220920489ca2b5937696c3183604051611a6f91906133d5565b60405180910390a3505050565b611a878484846116a8565b611a9384848484612396565b611ad2576040517f08c379a0000000000000000000000000000000000000000000000000000000008152600401611ac99061348e565b60405180910390fd5b50505050565b611b6e81604051602401611aec919061336e565b6040516020818303038152906040527f2c2ecbc2000000000000000000000000000000000000000000000000000000007bffffffffffffffffffffffffffffffffffffffffffffffffffffffff19166020820180517bffffffffffffffffffffffffffffffffffffffffffffffffffffffff8381831617835250505050612363565b50565b606060405180602001604052806000815250905090565b6060611b938261149d565b611bd2576040517f08c379a0000000000000000000000000000000000000000000000000000000008152600401611bc99061368e565b60405180910390fd5b6000611bdc611b71565b90506000815111611bfc5760405180602001604052806000815250611c27565b80611c0684611e18565b604051602001611c1792919061329a565b6040516020818303038152906040525b915050919050565b600081600001549050919050565b60008060008084519050600092505b80821015611e0d576000858381518110611c8f577f4e487b7100000000000000000000000000000000000000000000000000000000600052603260045260246000fd5b602001015160f81c60f81b9050608060f81b817effffffffffffffffffffffffffffffffffffffffffffffffffffffffffffff19161015611cde57600183611cd79190613808565b9250611df9565b60e060f81b817effffffffffffffffffffffffffffffffffffffffffffffffffffffffffffff19161015611d2057600283611d199190613808565b9250611df8565b60f060f81b817effffffffffffffffffffffffffffffffffffffffffffffffffffffffffffff19161015611d6257600383611d5b9190613808565b9250611df7565b60f8801b817effffffffffffffffffffffffffffffffffffffffffffffffffffffffffffff19161015611da357600483611d9c9190613808565b9250611df6565b60fc60f81b817effffffffffffffffffffffffffffffffffffffffffffffffffffffffffffff19161015611de557600583611dde9190613808565b9250611df5565b600683611df29190613808565b92505b5b5b5b5b508280611e0590613a36565b935050611c4c565b829350505050919050565b60606000821415611e60576040518060400160405280600181526020017f30000000000000000000000000000000000000000000000000000000000000008152509050611fc0565b600082905060005b60008214611e92578080611e7b90613a36565b915050600a82611e8b919061385e565b9150611e68565b60008167ffffffffffffffff811115611ed4577f4e487b7100000000000000000000000000000000000000000000000000000000600052604160045260246000fd5b6040519080825280601f01601f191660200182016040528015611f065781602001600182028036833780820191505090505b5090505b60008514611fb957600182611f1f91906138e9565b9150600a85611f2e9190613a7f565b6030611f3a9190613808565b60f81b818381518110611f76577f4e487b7100000000000000000000000000000000000000000000000000000000600052603260045260246000fd5b60200101907effffffffffffffffffffffffffffffffffffffffffffffffffffffffffffff1916908160001a905350600a85611fb2919061385e565b9450611f0a565b8093505050505b919050565b61205f838383604051602401611fdd93929190613449565b6040516020818303038152906040527ff362ca59000000000000000000000000000000000000000000000000000000007bffffffffffffffffffffffffffffffffffffffffffffffffffffffff19166020820180517bffffffffffffffffffffffffffffffffffffffffffffffffffffffff8381831617835250505050612363565b505050565b6060600082519050600081141561208d576040518060200160405280600081525091505061221d565b6000600360028361209e9190613808565b6120a8919061385e565b60046120b4919061388f565b905060006020826120c59190613808565b67ffffffffffffffff811115612104577f4e487b7100000000000000000000000000000000000000000000000000000000600052604160045260246000fd5b6040519080825280601f01601f1916602001820160405280156121365781602001600182028036833780820191505090505b50905060006040518060600160405280604081526020016142b0604091399050600181016020830160005b868110156121da5760038101905062ffffff818a015116603f8160121c168401518060081b905060ff603f83600c1c1686015116810190508060081b905060ff603f8360061c1686015116810190508060081b905060ff603f831686015116810190508060e01b90508084526004840193505050612161565b5060038606600181146121f457600281146122045761220f565b613d3d60f01b600283035261220f565b603d60f81b60018303525b508484525050819450505050505b919050565b6122b88160405160240161223691906133f0565b6040516020818303038152906040527f41304fac000000000000000000000000000000000000000000000000000000007bffffffffffffffffffffffffffffffffffffffffffffffffffffffff19166020820180517bffffffffffffffffffffffffffffffffffffffffffffffffffffffff8381831617835250505050612363565b50565b6122d582826040518060200160405280600081525061252d565b5050565b6122e28261149d565b612321576040517f08c379a0000000000000000000000000000000000000000000000000000000008152600401612318906135ee565b60405180910390fd5b8060066000848152602001908152602001600020908051906020019061234892919061280b565b505050565b6001816000016000828254019250508190555050565b60008151905060006a636f6e736f6c652e6c6f679050602083016000808483855afa5050505050565b505050565b505050565b60006123b78473ffffffffffffffffffffffffffffffffffffffff16612588565b15612520578373ffffffffffffffffffffffffffffffffffffffff1663150b7a026123e0611509565b8786866040518563ffffffff1660e01b81526004016124029493929190613389565b602060405180830381600087803b15801561241c57600080fd5b505af192505050801561244d57506040513d601f19601f8201168201806040525081019061244a9190612c01565b60015b6124d0573d806000811461247d576040519150601f19603f3d011682016040523d82523d6000602084013e612482565b606091505b506000815114156124c8576040517f08c379a00000000000000000000000000000000000000000000000000000000081526004016124bf9061348e565b60405180910390fd5b805181602001fd5b63150b7a0260e01b7bffffffffffffffffffffffffffffffffffffffffffffffffffffffff1916817bffffffffffffffffffffffffffffffffffffffffffffffffffffffff191614915050612525565b600190505b949350505050565b61253783836125ab565b6125446000848484612396565b612583576040517f08c379a000000000000000000000000000000000000000000000000000000000815260040161257a9061348e565b60405180910390fd5b505050565b6000808273ffffffffffffffffffffffffffffffffffffffff163b119050919050565b600073ffffffffffffffffffffffffffffffffffffffff168273ffffffffffffffffffffffffffffffffffffffff16141561261b576040517f08c379a00000000000000000000000000000000000000000000000000000000081526004016126129061362e565b60405180910390fd5b6126248161149d565b15612664576040517f08c379a000000000000000000000000000000000000000000000000000000000815260040161265b906134ee565b60405180910390fd5b6126706000838361238c565b6001600360008473ffffffffffffffffffffffffffffffffffffffff1673ffffffffffffffffffffffffffffffffffffffff16815260200190815260200160002060008282546126c09190613808565b92505081905550816002600083815260200190815260200160002060006101000a81548173ffffffffffffffffffffffffffffffffffffffff021916908373ffffffffffffffffffffffffffffffffffffffff160217905550808273ffffffffffffffffffffffffffffffffffffffff16600073ffffffffffffffffffffffffffffffffffffffff167fddf252ad1be2c89b69c2b068fc378daa952ba7f163c4a11628f55a4df523b3ef60405160405180910390a461278160008383612391565b5050565b828054612791906139d3565b90600052602060002090601f0160209004810192826127b357600085556127fa565b82601f106127cc57803560ff19168380011785556127fa565b828001600101855582156127fa579182015b828111156127f95782358255916020019190600101906127de565b5b5090506128079190612891565b5090565b828054612817906139d3565b90600052602060002090601f0160209004810192826128395760008555612880565b82601f1061285257805160ff1916838001178555612880565b82800160010185558215612880579182015b8281111561287f578251825591602001919060010190612864565b5b50905061288d9190612891565b5090565b5b808211156128aa576000816000905550600101612892565b5090565b60006128c16128bc8461374e565b613729565b9050828152602081018484840111156128d957600080fd5b6128e4848285613991565b509392505050565b60006128ff6128fa8461377f565b613729565b90508281526020810184848401111561291757600080fd5b612922848285613991565b509392505050565b600081359050612939816141e1565b92915050565b60008135905061294e816141f8565b92915050565b6000813590506129638161420f565b92915050565b6000815190506129788161420f565b92915050565b600082601f83011261298f57600080fd5b813561299f8482602086016128ae565b91505092915050565b60008083601f8401126129ba57600080fd5b8235905067ffffffffffffffff8111156129d357600080fd5b6020830191508360018202830111156129eb57600080fd5b9250929050565b600082601f830112612a0357600080fd5b8135612a138482602086016128ec565b91505092915050565b600081359050612a2b81614226565b92915050565b600060208284031215612a4357600080fd5b6000612a518482850161292a565b91505092915050565b60008060408385031215612a6d57600080fd5b6000612a7b8582860161292a565b9250506020612a8c8582860161292a565b9150509250929050565b600080600060608486031215612aab57600080fd5b6000612ab98682870161292a565b9350506020612aca8682870161292a565b9250506040612adb86828701612a1c565b9150509250925092565b60008060008060808587031215612afb57600080fd5b6000612b098782880161292a565b9450506020612b1a8782880161292a565b9350506040612b2b87828801612a1c565b925050606085013567ffffffffffffffff811115612b4857600080fd5b612b548782880161297e565b91505092959194509250565b60008060408385031215612b7357600080fd5b6000612b818582860161292a565b9250506020612b928582860161293f565b9150509250929050565b60008060408385031215612baf57600080fd5b6000612bbd8582860161292a565b9250506020612bce85828601612a1c565b9150509250929050565b600060208284031215612bea57600080fd5b6000612bf884828501612954565b91505092915050565b600060208284031215612c1357600080fd5b6000612c2184828501612969565b91505092915050565b60008060208385031215612c3d57600080fd5b600083013567ffffffffffffffff811115612c5757600080fd5b612c63858286016129a8565b92509250509250929050565b60008060008060408587031215612c8557600080fd5b600085013567ffffffffffffffff811115612c9f57600080fd5b612cab878288016129a8565b9450945050602085013567ffffffffffffffff811115612cca57600080fd5b612cd6878288016129a8565b925092505092959194509250565b600060208284031215612cf657600080fd5b600082013567ffffffffffffffff811115612d1057600080fd5b612d1c848285016129f2565b91505092915050565b600060208284031215612d3757600080fd5b6000612d4584828501612a1c565b91505092915050565b612d578161391d565b82525050565b612d668161392f565b82525050565b6000612d77826137c5565b612d8181856137db565b9350612d918185602086016139a0565b612d9a81613b6c565b840191505092915050565b6000612db183856137fd565b9350612dbe838584613991565b82840190509392505050565b6000612dd5826137d0565b612ddf81856137ec565b9350612def8185602086016139a0565b612df881613b6c565b840191505092915050565b6000612e0e826137d0565b612e1881856137fd565b9350612e288185602086016139a0565b80840191505092915050565b60008154612e41816139d3565b612e4b81866137fd565b94506001821660008114612e665760018114612e7757612eaa565b60ff19831686528186019350612eaa565b612e80856137b0565b60005b83811015612ea257815481890152600182019150602081019050612e83565b838801955050505b50505092915050565b6000612ec06032836137ec565b9150612ecb82613b7d565b604082019050919050565b6000612ee36018836137ec565b9150612eee82613bcc565b602082019050919050565b6000612f066025836137ec565b9150612f1182613bf5565b604082019050919050565b6000612f29601c836137ec565b9150612f3482613c44565b602082019050919050565b6000612f4c605c836137fd565b9150612f5782613c6d565b605c82019050919050565b6000612f6f6024836137ec565b9150612f7a82613ce2565b604082019050919050565b6000612f926019836137ec565b9150612f9d82613d31565b602082019050919050565b6000612fb5602c836137ec565b9150612fc082613d5a565b604082019050919050565b6000612fd86019836137ec565b9150612fe382613da9565b602082019050919050565b6000612ffb6038836137ec565b915061300682613dd2565b604082019050919050565b600061301e6001836137fd565b915061302982613e21565b600182019050919050565b6000613041602a836137ec565b915061304c82613e4a565b604082019050919050565b60006130646029836137ec565b915061306f82613e99565b604082019050919050565b6000613087602e836137ec565b915061309282613ee8565b604082019050919050565b60006130aa600d836137ec565b91506130b582613f37565b602082019050919050565b60006130cd6002836137fd565b91506130d882613f60565b600282019050919050565b60006130f06020836137ec565b91506130fb82613f89565b602082019050919050565b60006131136031836137ec565b915061311e82613fb2565b604082019050919050565b6000613136602c836137ec565b915061314182614001565b604082019050919050565b6000613159602f836137ec565b915061316482614050565b604082019050919050565b600061317c600a836137fd565b91506131878261409f565b600a82019050919050565b600061319f601d836137ec565b91506131aa826140c8565b602082019050919050565b60006131c26021836137ec565b91506131cd826140f1565b604082019050919050565b60006131e5601d836137fd565b91506131f082614140565b601d82019050919050565b6000613208600c836137fd565b915061321382614169565b600c82019050919050565b600061322b6031836137ec565b915061323682614192565b604082019050919050565b61324a81613987565b82525050565b600061325d828486612da5565b91508190509392505050565b6000613276828587612da5565b915061328182613011565b915061328d8284612e34565b9150819050949350505050565b60006132a68285612e03565b91506132b28284612e03565b91508190509392505050565b60006132ca8286612e34565b91506132d68285612e03565b91506132e28284612e34565b9150819050949350505050565b60006132fa8261316f565b91506133068286612e03565b915061331182612f3f565b915061331d8285612e03565b9150613328826131fb565b91506133348284612e03565b915061333f826130c0565b9150819050949350505050565b6000613357826131d8565b91506133638284612e03565b915081905092915050565b60006020820190506133836000830184612d4e565b92915050565b600060808201905061339e6000830187612d4e565b6133ab6020830186612d4e565b6133b86040830185613241565b81810360608301526133ca8184612d6c565b905095945050505050565b60006020820190506133ea6000830184612d5d565b92915050565b6000602082019050818103600083015261340a8184612dca565b905092915050565b6000604082019050818103600083015261342c8185612dca565b905081810360208301526134408184612dca565b90509392505050565b600060608201905081810360008301526134638186612dca565b905081810360208301526134778185612dca565b90506134866040830184613241565b949350505050565b600060208201905081810360008301526134a781612eb3565b9050919050565b600060208201905081810360008301526134c781612ed6565b9050919050565b600060208201905081810360008301526134e781612ef9565b9050919050565b6000602082019050818103600083015261350781612f1c565b9050919050565b6000602082019050818103600083015261352781612f62565b9050919050565b6000602082019050818103600083015261354781612f85565b9050919050565b6000602082019050818103600083015261356781612fa8565b9050919050565b6000602082019050818103600083015261358781612fcb565b9050919050565b600060208201905081810360008301526135a781612fee565b9050919050565b600060208201905081810360008301526135c781613034565b9050919050565b600060208201905081810360008301526135e781613057565b9050919050565b600060208201905081810360008301526136078161307a565b9050919050565b600060208201905081810360008301526136278161309d565b9050919050565b60006020820190508181036000830152613647816130e3565b9050919050565b6000602082019050818103600083015261366781613106565b9050919050565b6000602082019050818103600083015261368781613129565b9050919050565b600060208201905081810360008301526136a78161314c565b9050919050565b600060208201905081810360008301526136c781613192565b9050919050565b600060208201905081810360008301526136e7816131b5565b9050919050565b600060208201905081810360008301526137078161321e565b9050919050565b60006020820190506137236000830184613241565b92915050565b6000613733613744565b905061373f8282613a05565b919050565b6000604051905090565b600067ffffffffffffffff82111561376957613768613b3d565b5b61377282613b6c565b9050602081019050919050565b600067ffffffffffffffff82111561379a57613799613b3d565b5b6137a382613b6c565b9050602081019050919050565b60008190508160005260206000209050919050565b600081519050919050565b600081519050919050565b600082825260208201905092915050565b600082825260208201905092915050565b600081905092915050565b600061381382613987565b915061381e83613987565b9250827fffffffffffffffffffffffffffffffffffffffffffffffffffffffffffffffff0382111561385357613852613ab0565b5b828201905092915050565b600061386982613987565b915061387483613987565b92508261388457613883613adf565b5b828204905092915050565b600061389a82613987565b91506138a583613987565b9250817fffffffffffffffffffffffffffffffffffffffffffffffffffffffffffffffff04831182151516156138de576138dd613ab0565b5b828202905092915050565b60006138f482613987565b91506138ff83613987565b92508282101561391257613911613ab0565b5b828203905092915050565b600061392882613967565b9050919050565b60008115159050919050565b60007fffffffff0000000000000000000000000000000000000000000000000000000082169050919050565b600073ffffffffffffffffffffffffffffffffffffffff82169050919050565b6000819050919050565b82818337600083830152505050565b60005b838110156139be5780820151818401526020810190506139a3565b838111156139cd576000848401525b50505050565b600060028204905060018216806139eb57607f821691505b602082108114156139ff576139fe613b0e565b5b50919050565b613a0e82613b6c565b810181811067ffffffffffffffff82111715613a2d57613a2c613b3d565b5b80604052505050565b6000613a4182613987565b91507fffffffffffffffffffffffffffffffffffffffffffffffffffffffffffffffff821415613a7457613a73613ab0565b5b600182019050919050565b6000613a8a82613987565b9150613a9583613987565b925082613aa557613aa4613adf565b5b828206905092915050565b7f4e487b7100000000000000000000000000000000000000000000000000000000600052601160045260246000fd5b7f4e487b7100000000000000000000000000000000000000000000000000000000600052601260045260246000fd5b7f4e487b7100000000000000000000000000000000000000000000000000000000600052602260045260246000fd5b7f4e487b7100000000000000000000000000000000000000000000000000000000600052604160045260246000fd5b6000601f19601f8301169050919050565b7f4552433732313a207472616e7366657220746f206e6f6e20455243373231526560008201527f63656976657220696d706c656d656e7465720000000000000000000000000000602082015250565b7f4164647265737320416c7265616479206f636375706965640000000000000000600082015250565b7f4552433732313a207472616e736665722066726f6d20696e636f72726563742060008201527f6f776e6572000000000000000000000000000000000000000000000000000000602082015250565b7f4552433732313a20746f6b656e20616c7265616479206d696e74656400000000600082015250565b7f222c20226465736372697074696f6e223a20224120646f6d61696e206f6e207460008201527f6865204e696e6a61206e616d652073657276696365222c2022696d616765223a60208201527f2022646174613a696d6167652f7376672b786d6c3b6261736536342c00000000604082015250565b7f4552433732313a207472616e7366657220746f20746865207a65726f2061646460008201527f7265737300000000000000000000000000000000000000000000000000000000602082015250565b7f4552433732313a20617070726f766520746f2063616c6c657200000000000000600082015250565b7f4552433732313a206f70657261746f7220717565727920666f72206e6f6e657860008201527f697374656e7420746f6b656e0000000000000000000000000000000000000000602082015250565b7f4e6f7420656e6f756768206d617469632070726f766964656400000000000000600082015250565b7f4552433732313a20617070726f76652063616c6c6572206973206e6f74206f7760008201527f6e6572206e6f7220617070726f76656420666f7220616c6c0000000000000000602082015250565b7f2e00000000000000000000000000000000000000000000000000000000000000600082015250565b7f4552433732313a2062616c616e636520717565727920666f7220746865207a6560008201527f726f206164647265737300000000000000000000000000000000000000000000602082015250565b7f4552433732313a206f776e657220717565727920666f72206e6f6e657869737460008201527f656e7420746f6b656e0000000000000000000000000000000000000000000000602082015250565b7f45524337323155524953746f726167653a2055524920736574206f66206e6f6e60008201527f6578697374656e7420746f6b656e000000000000000000000000000000000000602082015250565b7f456d70747920737472696e672000000000000000000000000000000000000000600082015250565b7f227d000000000000000000000000000000000000000000000000000000000000600082015250565b7f4552433732313a206d696e7420746f20746865207a65726f2061646472657373600082015250565b7f45524337323155524953746f726167653a2055524920717565727920666f722060008201527f6e6f6e6578697374656e7420746f6b656e000000000000000000000000000000602082015250565b7f4552433732313a20617070726f76656420717565727920666f72206e6f6e657860008201527f697374656e7420746f6b656e0000000000000000000000000000000000000000602082015250565b7f4552433732314d657461646174613a2055524920717565727920666f72206e6f60008201527f6e6578697374656e7420746f6b656e0000000000000000000000000000000000602082015250565b7f7b226e616d65223a202200000000000000000000000000000000000000000000600082015250565b7f4e616d6520646f65736e6f742062656c6f6e6720746f2073656e646572000000600082015250565b7f4552433732313a20617070726f76616c20746f2063757272656e74206f776e6560008201527f7200000000000000000000000000000000000000000000000000000000000000602082015250565b7f646174613a6170706c69636174696f6e2f6a736f6e3b6261736536342c000000600082015250565b7f222c226c656e677468223a220000000000000000000000000000000000000000600082015250565b7f4552433732313a207472616e736665722063616c6c6572206973206e6f74206f60008201527f776e6572206e6f7220617070726f766564000000000000000000000000000000602082015250565b6141ea8161391d565b81146141f557600080fd5b50565b6142018161392f565b811461420c57600080fd5b50565b6142188161393b565b811461422357600080fd5b50565b61422f81613987565b811461423a57600080fd5b5056fe0a2d2d2d2d2d2d2d2d2d2d2d2d2d2d2d2d2d2d2d2d2d2d2d2d2d2d2d2d2d2d2d2d2d2d2d2d2d2d2d2d2d2d2d2d2d2d2d2d2d2d2d2d2d2d2d2d2d2d2d2d2d2d2d2d2d2d2d2d2d2d2d2d2d2d2d2d2d2d2d2d2d2d2d2d2d2d2d2d2d2d2d2d2d2d2d2d2d2d2d2d2d2d2d2d2d2d2d2d2d2d2d2d0a4142434445464748494a4b4c4d4e4f505152535455565758595a6162636465666768696a6b6c6d6e6f707172737475767778797a303132333435363738392b2f5265676973746572696e67202573206f6e2074686520636f6e7472616374207769746820746f6b656e4944202564a26469706673582212208af31a02f22f4e4344e87120cbab807430b47d74d49e2930cf3b0cfd58efc0fb64736f6c634300080400333c73766720786d6c6e733d22687474703a2f2f7777772e77332e6f72672f323030302f737667222077696474683d2232373022206865696768743d22323730222066696c6c3d226e6f6e65223e3c706174682066696c6c3d2275726c282342292220643d224d302030683237307632373048307a222f3e3c646566733e3c66696c7465722069643d22412220636f6c6f722d696e746572706f6c6174696f6e2d66696c746572733d2273524742222066696c746572556e6974733d227573657253706163654f6e55736522206865696768743d22323730222077696474683d22323730223e3c666544726f70536861646f772064783d2230222064793d22312220737464446576696174696f6e3d22322220666c6f6f642d6f7061636974793d222e323235222077696474683d223230302522206865696768743d2232303025222f3e3c2f66696c7465723e3c2f646566733e3c7061746820643d224d37322e3836332034322e393439632d2e3636382d2e3338372d312e3432362d2e35392d322e3139372d2e3539732d312e3532392e3230342d322e3139372e35396c2d31302e30383120362e3033322d362e383520332e3933342d31302e30383120362e303332632d2e3636382e3338372d312e3432362e35392d322e3139372e3539732d312e3532392d2e3230342d322e3139372d2e35396c2d382e3031332d342e37323161342e353220342e35322030203020312d312e3538392d312e363136632d2e3338342d2e3636352d2e3539342d312e3431382d2e3630382d322e313837762d392e3331632d2e3031332d2e3737352e3138352d312e3533382e3537322d322e32303861342e323520342e323520302030203120312e3632352d312e3539356c372e3838342d342e3539632e3636382d2e33383720312e3432362d2e353920322e3139372d2e353973312e3532392e32303420322e3139372e35396c372e38383420342e353961342e353220342e353220302030203120312e35383920312e363136632e3338342e3636352e35393420312e3431382e36303820322e31383776362e3033326c362e38352d342e303635762d362e303332632e3031332d2e3737352d2e3138352d312e3533382d2e3537322d322e32303861342e323520342e32352030203020302d312e3632352d312e3539354c34312e3435362032342e3539632d2e3636382d2e3338372d312e3432362d2e35392d322e3139372d2e3539732d312e3532392e3230342d322e3139372e35396c2d31342e38363420382e36353561342e323520342e32352030203020302d312e36323520312e353935632d2e3338372e36372d2e35383520312e3433342d2e35373220322e3230387631372e343431632d2e3031332e3737352e31383520312e3533382e35373220322e32303861342e323520342e323520302030203020312e36323520312e3539356c31342e38363420382e363535632e3636382e33383720312e3432362e353920322e3139372e353973312e3532392d2e32303420322e3139372d2e35396c31302e3038312d352e39303120362e38352d342e3036352031302e3038312d352e393031632e3636382d2e33383720312e3432362d2e353920322e3139372d2e353973312e3532392e32303420322e3139372e35396c372e38383420342e353961342e353220342e353220302030203120312e35383920312e363136632e3338342e3636352e35393420312e3431382e36303820322e31383776392e333131632e3031332e3737352d2e31383520312e3533382d2e35373220322e32303861342e323520342e32352030203020312d312e36323520312e3539356c2d372e38383420342e373231632d2e3636382e3338372d312e3432362e35392d322e3139372e3539732d312e3532392d2e3230342d322e3139372d2e35396c2d372e3838342d342e353961342e353220342e35322030203020312d312e3538392d312e363136632d2e3338352d2e3636352d2e3539342d312e3431382d2e3630382d322e313837762d362e3033326c2d362e383520342e30363576362e303332632d2e3031332e3737352e31383520312e3533382e35373220322e32303861342e323520342e323520302030203020312e36323520312e3539356c31342e38363420382e363535632e3636382e33383720312e3432362e353920322e3139372e353973312e3532392d2e32303420322e3139372d2e35396c31342e3836342d382e363535632e3635372d2e33393420312e3230342d2e393520312e3538392d312e363136732e3539342d312e3431382e3630392d322e3138375635352e353338632e3031332d2e3737352d2e3138352d312e3533382d2e3537322d322e32303861342e323520342e32352030203020302d312e3632352d312e3539356c2d31342e3939332d382e3738367a222066696c6c3d2223666666222f3e3c646566733e3c6c696e6561724772616469656e742069643d2242222078313d2230222079313d2230222078323d22323730222079323d2232373022206772616469656e74556e6974733d227573657253706163654f6e557365223e3c73746f702073746f702d636f6c6f723d2223636235656565222f3e3c73746f70206f66667365743d2231222073746f702d636f6c6f723d2223306364376534222073746f702d6f7061636974793d222e3939222f3e3c2f6c696e6561724772616469656e743e3c2f646566733e3c7465787420783d2233322e352220793d223233312220666f6e742d73697a653d223237222066696c6c3d2223666666222066696c7465723d2275726c282341292220666f6e742d66616d696c793d22506c7573204a616b617274612053616e732c44656a6156752053616e732c4e6f746f20436f6c6f7220456d6f6a692c4170706c6520436f6c6f7220456d6f6a692c73616e732d73657269662220666f6e742d7765696768743d22626f6c64223e",
  "linkReferences": {},
  "deployedLinkReferences": {}
}